:1000000000180020C1000000891600004D160000F5
:100010004D1600004D1600004D1600004D16000054
:100020004D1600004D1600004D1600008916000008
:10003000891600004D160000F1280000F928000084
:100040008916000089160000891600008916000034
:100050008916000089160000891600008916000024
:10006000091000008916000089160000891600009A
:100070008916000089160000891600008916000004
:1000800089160000891600008916000089160000F4
:1000900089160000891600008916000089160000E4
:1000A000551A000089160000891600008916000004
:1000B00089160000891600008916000089160000C4
:1000C000F8B501F0E5FA0821474A484B1A60484A5A
:1000D000484B1A60484A494B1A60494B1A780A4201
:1000E00002D01A780A431A702A22464B46481A70E0
:1000F00000234649464C1A188A4203D2E558043375
:100100001560F8E70021434B434A934201D202C3F2
:10011000FBE70023414A424958589446985004331B
:10012000C02BF9D100210326FF2580248A083D4BEE
:100130009200D2180B002F003340DB009F40106864
:100140000131B84307002000984003003B4313608F
:100150002029EBD16246344B1A608A22334B1A7045
:10016000334B663A5A707C321A709E3A9979114232
:10017000FCD0102299791142FCD10C209A792C499B
:100180000240082AFAD1053A0A713D324A71203AF2
:1001900099791142FCD0402299791142FCD025492D
:1001A000254A11602021224A117014399A790A4097
:1001B0000C2AFBD1214A224B1A60224A224B1A6098
:1001C0000022224B1A60224B07321A60214A224B2E
:1001D0001A6062B601F012FB05F0E4F901F05EFA74
:1001E00002F0C4FCFEE7C046300004F03480044056
:1001F000823F0000388004400100000F3C80044032
:1002000002D0074000E0074040FEFF1F3C000020F6
:10021000BC5B00003C0000207802002000F9FF1FBA
:100220000000000000E400E008ED00E0005006409F
:10023000004006400000011044800440C000050555
:10024000048004407FBB000014E000E018E000E000
:1002500010E000E00000202020ED00E0FFFFFFFFA5
:10026000FFFFFFFFFFFFFFFFFFFFFFFFFFFFFFFF9E
:10027000FFFFFFFFFFFFFFFFFFFFFFFFFFFFFFFF8E
:10028000FFFFFFFFFFFFFFFFFFFFFFFFFFFFFFFF7E
:10029000FFFFFFFFFFFFFFFFFFFFFFFFFFFFFFFF6E
:1002A000FFFFFFFFFFFFFFFFFFFFFFFFFFFFFFFF5E
:1002B000FFFFFFFFFFFFFFFFFFFFFFFFFFFFFFFF4E
:1002C000FFFFFFFFFFFFFFFFFFFFFFFFFFFFFFFF3E
:1002D000FFFFFFFFFFFFFFFFFFFFFFFFFFFFFFFF2E
:1002E000FFFFFFFFFFFFFFFFFFFFFFFFFFFFFFFF1E
:1002F000FFFFFFFFFFFFFFFFFFFFFFFFFFFFFFFF0E
:10030000FFFFFFFFFFFFFFFFFFFFFFFFFFFFFFFFFD
:10031000FFFFFFFFFFFFFFFFFFFFFFFFFFFFFFFFED
:10032000FFFFFFFFFFFFFFFFFFFFFFFFFFFFFFFFDD
:10033000FFFFFFFFFFFFFFFFFFFFFFFFFFFFFFFFCD
:10034000FFFFFFFFFFFFFFFFFFFFFFFFFFFFFFFFBD
:10035000FFFFFFFFFFFFFFFFFFFFFFFFFFFFFFFFAD
:10036000FFFFFFFFFFFFFFFFFFFFFFFFFFFFFFFF9D
:10037000FFFFFFFFFFFFFFFFFFFFFFFFFFFFFFFF8D
:10038000FFFFFFFFFFFFFFFFFFFFFFFFFFFFFFFF7D
:10039000FFFFFFFFFFFFFFFFFFFFFFFFFFFFFFFF6D
:1003A000FFFFFFFFFFFFFFFFFFFFFFFFFFFFFFFF5D
:1003B000FFFFFFFFFFFFFFFFFFFFFFFFFFFFFFFF4D
:1003C000FFFFFFFFFFFFFFFFFFFFFFFFFFFFFFFF3D
:1003D000FFFFFFFFFFFFFFFFFFFFFFFFFFFFFFFF2D
:1003E000FFFFFFFFFFFFFFFFFFFFFFFFFFFFFFFF1D
:1003F000FFFFFFFFFFFFFFFFFFFFFFFFFFFFFFFF0D
:10040000FFFFFFFFFFFFFFFFFFFFFFFFDEF9FFFF23
:1004100010B5064C2378002B07D1054B002B02D0DA
:10042000044800E000BF0123237010BD3C00002001
:1004300000000000BC5B0000084B10B5002B03D08F
:100440000749084800E000BF07480368002B00D1B7
:1004500010BD064B002BFBD09847F9E700000000C9
:1004600040000020BC5B00003C00002000000000B9
:1004700070B5040008000D0005F09EF92368020025
:1004800029005B682000984770BDC343DBB2542B42
:1004900007D803229800181A0138C0B20004534349
:1004A0000AE0A92B0AD80320553BDBB258439A0037
:1004B000C0B29B1A0002013BDBB20AE003225633B2
:1004C000DBB29800181A53430138C0B2DBB2000205
:1004D0001B0418437047FFFF70B5144C144A154BAA
:1004E000154920001A60FFF7C3FF200002F00CFA44
:1004F000124D280000F081FE280000F0D3FE104BC2
:100500002000196802F040FA200002F0FDF90D4CBD
:10051000200000F083FD200000F0C6FD0421200033
:1005200000F0CFFD200000F0E2FD70BDD0FEFF1F07
:1005300055070000DC010020CA57000068000020B9
:1005400050FEFF1F5C000020F0B5070087B0424856
:1005500000F0EAFD4149039003F0B6FA03F03AFCDB
:100560003F49404A0B68040004931068049B3E4DC9
:100570001B1A3E480068834227D90B680593059BE8
:1005800013603B4B1868844206DD201A03F044FCDC
:10059000296802F045FE2860364B186803F03CFCE1
:1005A000011C286803F090FA0021061C02F0BCFD33
:1005B0000023002808D13049301C02F0C9FD002872
:1005C00001D12E6001E02C4B2B602D680021281CEE
:1005D00002F0AAFD002807D12849281C02F0B8FD26
:1005E000002803D1281C02E0002000E0234803F08B
:1005F000F1FB2349C00102F05BFC224D3860224927
:100600002800FFF735FF3968280002F0BDF91F49BF
:100610002800FFF72DFF039804F05CFF0B00022178
:1006200002000091280002F0B9F9280002F06CF9EC
:10063000174B9C4205DDFA235B019C4203DD1C0045
:1006400001E0FA24E400134B1349E018C00102F062
:100650002FFC07B0F0BDC0465C0000200050C3472F
:1006600098000020800000208400002048FEFF1F2A
:100670004CFEFF1F44FEFF1F00606A4700504347C7
:1006800051C30000D0FEFF1FD9570000E257000001
:10069000CF07000030F8FFFF71170000F8B50D001C
:1006A000114C86B20A002000310000F07FFE0F4F8F
:1006B0002A003B68200059000139891B89B200F0EB
:1006C00075FE3B682A0059007118200089B200F0BD
:1006D0006DFE39682A0089000139891B89B2200022
:1006E00000F064FEF8BDC0466800002050FEFF1F09
:1006F000F8B5154E070030687E2807DC7F230130EF
:100700004143CC171C406118CC1104E048437F21C1
:1007100002F0CEFB0400002533689D420FDA390059
:10072000A54206DB142002F015FA0021002800D1B2
:10073000064928000135FFF7B1FFADB2ECE70448E8
:1007400000F0B0FDF8BDC04650FEFF1F64646400B9
:100750006800002070B57F2100201400FFF7C8FF5B
:100760007F2C09D0FF207E21604302F0A1FBC0B2A4
:10077000FFF78BFE060000E0184E194D00212800FF
:1007800000F04EFE7F213000FFF7B2FF00247F21F2
:100790003000FFF7ADFF6421200002F089FBC1B2F9
:1007A000280000F03DFE0F4BE4180F4B9C42EED1A9
:1007B0007F213000FFF79CFF6421200002F078FBCE
:1007C000C1B2280000F02CFE084BE418002CEFD139
:1007D0002800FF2100F024FE70BDC0466464640060
:1007E00068000020FB0400009C63000005FBFFFF85
:1007F00070B5FF2500242D020E4B1B689C4215DAB4
:10080000062002F0A7F900280DD1FF3002F0A2F96E
:100810000600FF2002F09EF93102C3B229401943BD
:100820002000FFF73BFF0134A4B2E5E7024800F0E7
:1008300039FD70BD50FEFF1F6800002070B5151C0B
:100840000400081A03F0E8FA291C03F029F8051C33
:10085000200003F0E1FA011C281C02F0E1FC02F088
:10086000A9FCC0B270BDF7B50D000400090C000C66
:10087000C9B2C0B2171CFFF7E1FF290A0190200A94
:100880003A1CC9B2C0B2FFF7D9FF0600E9B23A1C60
:10089000E0B2FFF7D3FF019B36021B041E43304337
:1008A000FEBDFFFFF0B50E2085B000F087FE334B94
:1008B0003349584302F0FCFA324B334CC018334BE7
:1008C00018602000FFF740FE65232268304D534337
:1008D0007F222860D8171040C018C01103F09CFA7E
:1008E0002C4902F013FE061C04F0F4FD0B0002215B
:1008F000294F02000091380002F050F8380002F051
:1009000003F89621C820321C09048003FFF7ABFFCF
:100910002178FFF7EDFE23687F2B01D1FFF768FFF9
:100920001E4E28683368984212D01D4B1D4F1B681D
:1009300000060393039B3B60FE23DB0518401A4B24
:10094000184301F035FC2B683A683360174B1A6086
:10095000174D20682B68984209D0FE230006DB055E
:100960001840144B184301F023FC23682B6000202F
:1009700001F07EFC0028FAD105B0F0BD581B000044
:10098000FF030000B80B0000640000204CFEFF1FB6
:10099000880000200000C842D0FEFF1F54FEFF1F49
:1009A000980000208C0000200BB3010058000020AC
:1009B000600000200BB30200094B10B51968094C08
:1009C0008900522389B21122200000F0D9FC064A86
:1009D0000649200002F0C7F9054800F01DFB10BDD4
:1009E00050FEFF1F6800002040FEFF1FDD110000C9
:1009F0005C000020002070470300383039331B783A
:100A00000078181A70470200010038323931137823
:100A10000978994204D9591C1170C318187E01E055
:100A200001204042704703000200383339321B78FE
:100A300012789A4202D9C318187E01E00120404280
:100A4000704770470300002210B55E331B88934245
:100A50000DD004005D342378202B02D901230371CB
:100A600005E05A1C22700122C3183B331970100094
:100A700010BD70B514000200030000205E32128821
:100A8000824212D01D0021225D352878121A94422C
:100A900002D901241C7114003B331818220004F001
:100AA000BBFD20002B781B192B7070BD43691A68A1
:100AB0005B68126813420FD0084A0369914201D85B
:100AC0001F2205E0064A914201D8122200E00222CC
:100AD0005A70022203699A717047C0467F1A060055
:100AE0003F420F000200F8B50023040038321370B3
:100AF0005370243293701370537043668366D370BF
:100B000040696427016842680D682A430A602269C7
:100B10001549937023000C22613360691E78861991
:100B2000337A5343CB185D68737BE0261B02F600D3
:100B300033403B432B60230062331B78C018837C17
:100B40005A43C37D89181B024A681E403E43166003
:100B500006492000FFF7AAFF202322695371802253
:100B600023699A70F8BDC0465C580000A086010059
:100B7000102270B503690400DD78EDB2154203D18F
:100B800040222A4004D12BE0DA706B06F8D476E0DC
:100B900004231D403A4B1BD0250000225D352A70EE
:100BA0001A70636E934200D0984723002A783B3333
:100BB000002A02D1012129701A70D02221698A707D
:100BC0001B7822691371230001225C331A7053E0F1
:100BD00001221A70230039331D702269C02330E0CE
:100BE000602120698379DBB2194060290CD140393A
:100BF0008B438371A36E002B06D0210038310A701D
:100C000022003932107898471023226991780B40DE
:100C10001BD001231D4013D1210020005C315D3029
:100C20000B780078984206D9581CE31808703B33BB
:100C30001B78137100E01571D023226993701BE0BB
:100C4000C023937023691B7916E0210060310B707B
:100C5000202193790B4321009371236939311A794B
:100C60000B78D2B21F2B07D805480078002803D094
:100C7000581CE31808701A7602222369DA7070BDD6
:100C800090000020F0B500210400334B85B01B68B4
:100C90000293029B019320202269D378034257D00C
:100CA0002D4B01981B680393039B1B1A0F2BF2D942
:100CB000002945D12500613562692B780531D318AB
:100CC000187A00F027FD2B7862690121D3189F7CE8
:100CD0000926380000F01EFD0021380000F0FAFC63
:100CE0005023013BFDD10121380000F0F3FC5023DB
:100CF000013BFDD1013E002EEED10C2166692B781F
:100D0000164DF3181A7A64204A43AA185768E0224D
:100D10005B7BD2001B02134003433B602300623322
:100D20001B78F618B37C59436D18F17D6B68090286
:100D30000A4010431860A023013BFDD10121AAE71E
:100D4000102BA8D000209070802223699A7000E0B8
:100D5000012005B0F0BDC046980000205C5800009E
:100D600012230269F0B5D370202287B00369019184
:100D70009D780400154002D094329A700BE0FFF782
:100D800081FF03000420002B62D023005F331D701D
:100D9000B0232269937020262E4B20691A68029294
:100DA000029DC278324048D00022022520260092BF
:100DB00022005D32127800998A4233D962183B32A0
:100DC000127821690A711A6821690592059A944678
:100DD000CA78D2B217002F400AD1324208D06046FA
:100DE0001A680492049A121A052AF1D98F702BE01E
:100DF0001020CD702169CA78D2B2024201D13242AC
:100E000003D1802304208B700DE0012100980A4259
:100E100004D0434258410323181A07E00130C2B2FC
:100E20000092C5E70020019B002B02D0802322699D
:100E3000937000235E3423700AE0196803910399CC
:100E4000491B0429ADD982708022042023699A703D
:100E500007B0F0BD98000020F0B516008BB002007E
:100E6000019300233832137001321370009202692B
:100E70001233D3702022036905009C780F001440C0
:100E800002D094329A700AE0FFF7FCFE002800D1ED
:100E9000B4E02B005F331C70B0232A6993702022CA
:100EA000944658490B68029302982B696246DC7895
:100EB00014400A00002C06D10A680392039A121A01
:100EC000042AF3D912E001217F000F43FFB21F7102
:100ED00002271368049304982B69DC783C4009D1FD
:100EE000116805910599091A0529F6D99C702B6995
:100EF000802211E00222DA702B690F32DC78144074
:100F000003D06F329A70002478E0002E06D1019948
:100F10008022002900D120329A706FE0A822012E91
:100F200000D0A0229A7002222B6994461B790023DC
:100F300034492A690868012E28D00690069F644625
:100F4000D078204006D10C680794079CE41B052C40
:100F5000F5D927E002211020D1702969CA78D2B2D0
:100F600002424AD10018024247D0013EF6B2012E99
:100F700001D1A8228A702A691F2B05D81279591C21
:100F8000EB181A76CBB2D3E71279D1E70227089093
:100F9000089ED078384007D10C680994099CA41B9E
:100FA000052CF6D9907023E002211020D170296918
:100FB000CA78D2B2024209D0C8705022013AFDD19B
:100FC000296908388A7882438A7016E01C009206E4
:100FD00014D5B0228A702A691F2B05D81279591CA2
:100FE000EB181A76CBB200E01279019A002A02D0EF
:100FF00080212A699170009A13701C0020000BB0A8
:10100000F0BDC0469800002010B50248FFF7B0FDC3
:1010100010BDC04658FEFF1F7047FFFF10B50248C5
:10102000FFF760FD10BDC04658FEFF1F70B50F4CA6
:10103000C02223003B331A70230001255E331D704C
:10104000230020005D331D70FFF7FCFC0021200011
:10105000FFF786FE2B002A0060212000FFF7FCFE30
:101060002000FFF7D0FCC0B270BDC04658FEFF1F85
:1010700070B50C4C16002300C0223B331A702300BD
:1010800001255E331D70230020005D331D70FFF7C6
:10109000D9FC31002000FFF7D5FC29002000FFF724
:1010A0005FFE70BD58FEFF1F10B526210400FFF73C
:1010B000BDFF7F23020026211A402000FFF7D8FF42
:1010C00010BD70B50A1C0400072900D9072226218B
:1010D0002000D5B2FFF7AAFFC7210200EB000A40AB
:1010E0001A43D2B2A1392000FFF7C2FF70BD10B57C
:1010F00007221321FFF7BCFF10BD70B526210400A5
:101100000225FFF793FFA843C2B226212000FFF774
:10111000AFFF26212000FFF789FF2843C2B2262116
:101120002000FFF7A5FF70BDF7B507000021FFF70E
:101130007DFF00213800FFF779FF264CC0222300F5
:101140003B331A70230001255E331D7023002900F4
:101150005D3320001D70FFF775FC00212000FFF7B4
:10116000FFFD2B00032260212000FFF775FE0328FE
:101170002DD12000FFF747FC06002000FFF743FCBD
:1011800005002000FFF73FFCC3B2040038000193C4
:10119000FFF7B3FFFF2336041B041E40FF232D027D
:1011A0001B021D40019B2E439806800F02F07CFE1F
:1011B000FA21890502F074FBE4B23443051CA01146
:1011C00002F02AFE011C281C02F02AF800E0024866
:1011D000FEBDC04658FEFF1F00C079C410B5040014
:1011E000C06804F00FFA0623E05E002803DBC0B2FB
:1011F000002100F08FFA200010BD10B50400062376
:10120000C05E002807DBC0B2012100F083FAA0799C
:10121000002100F05FFA0123637010BD70B5050076
:10122000C0680E0004F0EEF9EB7C2C7C1C1B6342C2
:101230005C4104231C1B7443A4B2AC80200004F066
:10124000D7F9E860002805D02200002104F0EDF96C
:101250006E8001E0A880688070BDC37C027C70B5A0
:101260009A1A54425441E2B203248B110D118E108C
:101270002640234025400C4046748474FF260024F9
:101280008E426441C168C37405740470002907D09C
:101290005B1B5C425C41944202D04188FFF7BEFF79
:1012A00070BDFFFFF8B5C3680400002B00D147E014
:1012B00000F066FA6369C01A2C23FF339842F7D90D
:1012C00072B60623E05E0C2343431E49A288C81869
:1012D0005958007A0431E3681D782D0607266D0001
:1012E00008D208700427013FFDD108710D27013F86
:1012F000FDD108E008700D27013FFDD108710427DA
:10130000013FFDD1C046013EE9D16D0008D2087011
:101310000427013FFDD108710A27013FFDD108E0F4
:1013200008700D27013FFDD108710127013FFDD154
:10133000C0460133013ACFD162B600F021FA6061B4
:10134000F8BDC0465C58000070B5437805000C003D
:10135000002B07D00623C05E002803DBC0B20021AB
:1013600000F0D8F96B78EC80002B08D0E4B20121B2
:10137000200000F0CFF90021200000F0ABF970BD93
:1013800070B51500002204000E0042700272C260A7
:1013900042611900FFF761FF31002000FFF73EFFB7
:1013A00029002000FFF7D0FF200070BD4388F7B56B
:1013B0008B4233D9037A150C140A002B04D1E4B202
:1013C000EDB20194D6B20AE0FF26344035405C43CA
:1013D00016405D435E43240A2D0A0194360A077CB9
:1013E000B446C67C3C00C768B44203D103235943CA
:1013F0007F180AE089007F18120EBE19002B01D158
:10140000D3B201E053431B0A33706A46037C12795E
:10141000FD54437CFA546246837CFA54F7BDFFFFC7
:1014200070B54C1C037AE4B205000A009C421AD045
:10143000C6680020013BD9B2814208D0FF2A01D101
:10144000094801E02002013801F032FD80B200239A
:10145000A9889AB2914205D9F25C42431212F25421
:101460000133F5E72C7270BDFFFF00008023F0B55B
:101470001D4A10681840FCD172B61C4C2378002B12
:1014800030D01B4B1F681B4B1A681B4BBA181E68C9
:101490001A4B92191D681A4B52191968194B521898
:1014A0001B68194DD21892B25208184B2A4392B2B7
:1014B0001A60174B17491B68174A9C46174B1B6845
:1014C00012680F68164963440E6816499B1809682C
:1014D000DB199B195A1893B25B082B43124A9BB233
:1014E0001360207062B6F0BD24B00340920000206B
:1014F00038B003403CB0034040B0034044B0034028
:1015000048B003404CB003400080FFFF2CB00340C4
:1015100058B0034064B0034060B003405CB0034087
:1015200068B003406CB0034030B003401B4B1C4A12
:1015300019781C4B082901D1002102E00A2903D1A6
:101540002E311160132206E00C2901D1283100E070
:101550003C21116012221A60134B1A78134B002A97
:1015600001D0002200E001221A60114B1A78114BC1
:10157000012A01D880220CE0042A01D8842208E044
:10158000082A01D8852204E0102A01D8862200E02A
:1015900087221A600122084B1A707047C4FEFF1F91
:1015A00008B003400CB003409400002020B003407A
:1015B000C5FEFF1F24B0034092000020F8B50300D1
:1015C0000020272B33D81A4AD45CFF2C2FD0194B7C
:1015D0001B78834201D0FFF749FF72B610274022E3
:1015E000154B144205D01A68BA431A603F231C40B9
:1015F00002E01A683A431A600123104E104D34601D
:101600002B7062B672B680223368134208D00D4B3D
:10161000186800232B7062B60B4B1B78184106E04C
:101620002B78002BDBD062B601F0C8FAEAE7F8BDF0
:1016300034580000920000200CB0034000B003407A
:101640009300002010B003409100002070B5802569
:101650008026ED02F6000B4C23682B4201D000F0EF
:10166000F9F92368334201D000F00EF823681B0516
:1016700001D500F009F82368DB04ECD500F004F88C
:10168000E9E7C0463480044010B5FFF7DFFFFFFFF5
:101690000022014B1A607047008104407047FFFF31
:1016A0000A49030010B50868002B0DD06A46084CA3
:1016B000C3181219934206D303F06EFF0C23036084
:1016C0000120404200E00B6010BDC046C8FEFF1F75
:1016D00000FEFFFF10B51A2818D80C2358430C4AF7
:1016E000835810181C7D027A224205D0002901D0AF
:1016F0001A710BE01A7209E043681A68002902D0D7
:1017000003210A4301E002218A431A6010BDC0464A
:101710005C580000F0B51A282FD80C221700474358
:10172000164CE5196B682600012901D0042911D156
:10173000504334583018257D027A20202A432275E0
:10174000A22252001A601A68042901D1024313E050
:10175000824311E038592C7A027DA243027580221F
:10176000002908D0022902D10422FF3204E000221D
:10177000032901D1812252001A60F0BD5C5800009B
:1017800072B60C4B1A680C4B18680C4B1B6862B68F
:101790005B0104D5322393429B415B42C018084B46
:1017A0009A1A084B5A43FA239B005843920D10187B
:1017B0007047C04618E000E09800002004ED00E00B
:1017C0007FBB00005555010070B50400FFF7D8FF3E
:1017D0000500002C0FD0FFF7D3FF074B401B9842AA
:1017E00006D9013C002C06D0FA239B00ED18F2E745
:1017F00001F0E4F9EFE770BDE703000080221E4B23
:10180000D20510B51A608022002012061A601B4B08
:101810001B4918601B4B1C4A1960282313601B4A84
:101820001B4C13601B4A13601B4A13601B4A136056
:101830001B4A1360092222601A4C20601A4C216056
:101840001A4C23601A4C23601A4C22601A4C2060F8
:101850001A4801601A490B601A490B601A4B1A604A
:10186000FFF764FE1920FFF7AFFF00F0E5FB14203F
:10187000FF30FFF7A9FF10BD00E100E00480034046
:10188000FFBF0000088003400C8003401480034029
:10189000008003401C800340248003402C800340D0
:1018A0003480034004900340089003400C900340B0
:1018B000149003400090034004A0034008A003409C
:1018C0000CA0034014A0034000A003400223F0B585
:1018D0000A4A0B4E1478C8272343DB00F5186860CA
:1018E00008480578002D00D1403F09040F43F75008
:1018F00001235D405C4005701470F0BD04010020C0
:1019000000F8FF1F7C010020431E10B50020032BB0
:101910000ED872B6074A99008858002807D0446844
:101920005B008C50044904885A5A121B5A5262B602
:1019300010BDC046F400002028020020431E0020F5
:10194000032B09D872B6054A9B009B58002B02D086
:1019500001305B68FAE762B67047C0464801002074
:10196000F8B572B60123174A082594461E00164999
:1019700064465A1EA25C2A421AD05F017C589A0023
:10198000002C05D1CB1908305860104BCB5109E021
:101990003243D2005458002C0AD18B1808305860BA
:1019A0000B4B8B500B4A1378013B137062B608E067
:1019B0000133052BDCD162B60022064B1A7000F011
:1019C000B1FBF8BDD459000000F8FF1F88004000AB
:1019D000C800400072010020421E10B5032A30D812
:1019E000022380001843174BC0001B1872B6164C18
:1019F000A05C03280BD801F0BDF9160402070520EE
:101A000012E0083302200FE0083304200CE00F48F6
:101A1000920014580E4B002C01D1115001E098583F
:101A2000416099500CE00320A0540A0008325A602B
:101A3000C822180700D4403A098809040A431A60EA
:101A400062B610BD00F8FF1FB00000204801002062
:101A500058010020F7B5B34B1C781D000423E4B2F5
:101A60001C421FD0B04B1B78002B18D0AF4A137804
:101A7000DBB2002B05D0013BDBB21370002B00D191
:101A800000BEAB4A1378DBB2002B06D0013BDBB2C1
:101A90001370002B01D100F0E3FE00F0D1FB042213
:101AA000A04B1A700822224000D159E2A14BA24F4C
:101AB0001B78DBB29C08E4001D093C19002D00D006
:101AC000DFE1236865689806000F01380C2800D90B
:101AD000D3E101F059F988018801D201D201D20184
:101AE000D201D201D201AF01D201D201D2010D0047
:101AF0006B68924E9249736000230B6001219148FC
:101B00002A682060904C32602170904C92B23B6108
:101B1000BB610190A24218D8D020C000824200D3FD
:101B2000E7E081204000824200D1C3E006D8802A4D
:101B300000D1A8E0822A00D1AAE0EFE0844B9A42CB
:101B400000D1C6E0FF33FF3319E0824B9A4200D147
:101B500046E10FD8A13B9A4200D18EE080339A42F1
:101B600000D0DBE03C003D00B2786F4B20341A70AF
:101B7000A03508E0784B9A4200D10BE1774B9A42AE
:101B800000D107E1CAE080222368134203D06068D5
:101B9000083800F0C7FA0834AC42F4D1002425001C
:101BA0006F4BE058002805D04368009300F0BAFA64
:101BB0000098F7E76A4B18516A4BE0506A4BE058BF
:101BC000002805D04368009300F0ACFA0098F7E7CE
:101BD000654B664A1851664BE0506B00D052654B1E
:101BE000E85C0238032807D801F0C4F802040204B4
:101BF000002200E001225A5501350434042DCFD1D2
:101C0000002301245C4D2B705C4B5D49621EE31880
:101C10008A5C9B001A7008231A4220D000F064FAF4
:101C20006301002805D0FA1808305060554AFA5070
:101C300003E0F8502B7801332B7000F055FA0122A5
:101C4000A3001343DB00002805D0FA1808305060C9
:101C5000019AFA5003E0F8502B789B182B70022160
:101C60000023A2001143C9007B5003210A438A408C
:101C70000134BB50052CC7D18DE02B4B424C1B7857
:101C800023700B0088E0404C23706370022383E0D4
:101C90007F22B0880240042A40D83B4C9200237037
:101CA00063703A4BD218022312781A4200D173E0C3
:101CB000217071E07F23B2881A40042A2ED87388DD
:101CC000002B2BD102203149920052181178814308
:101CD0000DE07F23B2881A40042A1FD87388002B96
:101CE0001CD1022029499200521811780143117029
:101CF00051E07288B188264B5C68002C0ED01888A1
:101D0000904209D15888884206D1120A032A01D18B
:101D1000237841E01B893FE00C33EDE70F221B4B9A
:101D20001A705DE0802007407B0100200501002043
:101D3000F00100209020074000F8FF1F68010020FC
:101D40009C000020C80040007C01002081060000AB
:101D50000203000021090000210A000021220000E6
:101D6000F4000020A00000204801002028020020EC
:101D700058010020B00000207201002030C801107E
:101D8000D45900008800400073010020C0200740A3
:101D9000D859000000231C00F5889D4200D91D0081
:101DA0002E00402D00D9402620003100FFF78EFD87
:101DB000A419AD1B03D12F00402E04D010E0402702
:101DC000AF4200D92F0020003900FFF77FFDE41952
:101DD000ED1B01D1402F03D17D4B1C607D4B1D803D
:101DE00001227D4B48E07D4E7D4B32889A4203D1E3
:101DF00000210800FFF76AFD7A4B32689A4216D13B
:101E0000794B72689A4212D12B78A92B0FD16B783B
:101E1000452B0CD1AB78C22B09D1EB786B2B06D1BB
:101E200000210522714B08001A70FFF74FFD704B1F
:101E3000236022E0664F3E68002E13D0654B1C885D
:101E40002500402C00D9402529003000FFF73EFD39
:101E5000641B604BA4B21C80002C01D1402D00D12A
:101E600074193C60A0225D4BD2001988914204D1C4
:101E700000225A709A785F4B1A700122564B1A70E2
:101E80006AE008226068013D0838EDB2134037D09F
:101E900000F048F95849A8004258584B002A1CD075
:101EA000566846501100585D0831616003280BD810
:101EB00000F060FF02040608032104E0022102E0B2
:101EC000052100E0042159550821C8230C4200D106
:101ED000403B1288120413433DE0585D032808D8A4
:101EE00000F048FF3A3A0204002200E001225A556D
:101EF00032E008221440621E944102345C552BE00B
:101F00002268110C8AB2028000291ED03C4943800D
:101F10004360AB005F583B4E002F01D1585001E0A9
:101F2000F158486038496D00F0506B5AD2186A5227
:101F300000F0DAF8002802D00830606005E0334A8B
:101F4000206013780133137006E008231C4201D18E
:101F50002F4B00E0264B236008222E4B1A707AE5A7
:101F6000012004421ED002231B49294C0B702A4B2E
:101F70002A4E1A702A4B1C609C602A4C1A61DC6045
:101F80000D249A615E60284B1C70FF23274C237040
:101F9000184C2B702270264A13709F22254B1A7002
:101FA000087013E063B2002B04DA0D221E4B1A7086
:101FB00080232B700222144204D01C490B78DBB220
:101FC0000B702A7010231C4200D02B70F7BDC04646
:101FD0009C00002070010020942007406801002030
:101FE0002120000021090003010004000501002058
:101FF000C80040009820074048010020B0000020A1
:10200000F4000020A000002028020020720100201F
:10201000880040008020074004010020B400002018
:1020200000F8FF1F08010020C0200740882007405B
:102030008C2007408420074010B500F057FE002296
:1020400011001B4BD150981808324160A02AF9D1D9
:1020500080201849C0020A6802430A601A0A164919
:10206000D2B20A701A0C1549D2B20A70144A1B0E69
:102070001370FF23134A00201370134A134913707F
:10208000134A137001220A701249087012490A702B
:10209000124A116899430B0070210B431360802290
:1020A0000F4B52041A6010220E4B1A7010BDC0461E
:1020B00000F8FF1F348004409C200740B0200740F8
:1020C000B420074080200740882007409420074024
:1020D00010200740002107408420074018E400E05A
:1020E00000E100E00821074070B572B60B4D2C6886
:1020F000200001F041F80F2802DD62B600200CE05C
:1021000080231B06C3409C432C6062B6482358437F
:10211000034B181800230360436070BDCCFEFF1F03
:10212000C0F9FF1F10B504000E484821201A00F026
:1021300035FE0F2814D80C4B1B78002B07D00B4B07
:102140001B78002B03D02000FFF70AFC08E072B6D2
:1021500080231B06C340064A11680B43136062B616
:1021600010BDC046C0F9FF1F720100207B01002096
:10217000CCFEFF1F0B4B70B51B6805000A4C002BF3
:1021800007D021883B2904D900220848984700231A
:10219000238023883B2B03D85A1C2280034AD55422
:1021A00070BDC046A4010020320200203802002089
:1021B000F8B501231D4D1E4C2B7023680700002B22
:1021C0001DD11C4E1C4B1B78002B2DD00320FFF77C
:1021D000B5FB052804D9013E184B002E06D108E0B6
:1021E000FFF782FF20600028F5D008E01A78002A67
:1021F00002D001221A7017E000F0E0FCE2E70026AE
:102200000E4B21681E704B885A1C9B00CB189F6098
:102210000F2A01D84A8005E0402303200B80FFF7F6
:10222000DBFB266000232B70F8BDC0469401002024
:10223000C0010020E14200007B010020C401002019
:1022400070B5094B1D78002D0CD1084C2168002970
:1022500008D04B88002B05D09B000B800320FFF794
:10226000BBFB256070BDC04694010020C00100206A
:10227000F7B5B44E019033683500002B13D1B24B43
:102280001B78002B00D1A7E10420FFF73DFB306055
:10229000002800D1A0E10488002C04D1FFF742FF00
:1022A0003460200099E1286843889A0892008218D7
:1022B000946802880433934201D2438005E0FFF71B
:1022C00031FF0420FFF720FB28600F23250022099F
:1022D0009E491A401D40260A37000A702A001F40F6
:1022E000083A0137062A7FD8019A002A02D097427D
:1022F00000D071E1220B1340082D07D1082B00D02C
:102300006AE18022924B1A70924B21E0092D16D17E
:10231000092B00D060E1220E8D4B210C002A07D042
:10232000902018708C4BD2B21B68002B15D152E054
:1023300080201870874B1B68002B0ED14BE00A2DB4
:102340000FD10A2B00D047E1A022814B1A70834B9A
:102350001B68002B3FD0220E210CC9B2F8B298475F
:1023600039E00B2D07D10B2B00D035E1B022784B93
:102370001A707B4BECE70C2D07D10C2B00D02BE116
:10238000C022734B1A70774B08E00D2D0ED10D2B28
:1023900000D021E1D0226E4B1A70734B1B68002BCA
:1023A00019D0210CC9B2F8B2984714E00E2B00D016
:1023B00012E1E022664B1A706C4B1B68002B0AD0AE
:1023C000FE226102480E9201610C1140684A0143ED
:1023D0008918F8B29847674B220C1F70664B240E81
:1023E0001A70664B1C70AAE0AB1EF0B2012B05D927
:1023F000052D6DD1F02879D9F72877D0F1380E283E
:1024000000D9E9E000F0B6FC080A17E8E81EE82366
:10241000E82D3741E84B5500594B0DE0594B1A68F0
:10242000002A52D0FE236002410E9B01600C18402E
:102430000843904749E0544B1B68200CC0B2002B66
:1024400042D142E0514B1B68002B36D13DE0504B4E
:102450001B68002B31D14F4BF8201B68002B33D168
:1024600033E04D4B1B68002B27D14A4BFA201B68E9
:10247000002B29D129E0494B1B68002B1DD1454B6E
:10248000FB201B68002B1FD11FE0454B1B68002B56
:1024900013D1404BFC201B68002B15D115E0414B9C
:1024A0001B68002B09D13B4BFE201B68002B0BD176
:1024B0000BE03D4B1B68002B01D0984705E0354BE6
:1024C0001B68002B01D0FF209847214B1E7082E72C
:1024D000042D08D1F0B2FFF74DFE200CC0B2FFF77B
:1024E00049FE200E76E06B1F022B67D8F0B2FFF793
:1024F00041FE052D08D0200CC0B2FFF73BFE072D92
:1025000002D1200EFFF736FE284B1B4A19881170A6
:102510001A4A080A107000221A800D4BF0321A7005
:10252000234B1B68002B03D0EF3A2248984706E064
:10253000214B01201B68002B4FD01E4898470120DB
:102540004BE0C046CC0100207B0100203602002079
:1025500030020020D4010020DC010020A80100206E
:10256000D801002098010020AC0100209C0100202F
:1025700000E0FFFF37020020340200203502002077
:10258000B4010020A0010020D0010020B8010020EB
:10259000800100208C010020B0010020900100206B
:1025A000C8010020880100208401002032020020A0
:1025B000A401002038020020BC0100200F2D0BD107
:1025C000F72800D91AE7F02803D0044B1B88002B0A
:1025D00002D0F0B2FFF7CEFD0020FEBD3202002097
:1025E00070B5144B1B78002B20D0134D2B682E0098
:1025F000002B03D10220FFF787F928602868002804
:1026000014D04388C218147A002C0BD002880133EE
:10261000934204D3FFF786FD0023336000E043803C
:10262000200005E0FFF77EFD2C60DAE70120404244
:1026300070BDC0467B010020EC01002070B50E4B40
:102640001B78002B13D00D4D2B68002B03D10220DB
:10265000FFF75AF928602868002808D04388C31873
:102660001C7A002C06D1FFF75DFD2C60E7E7012006
:10267000404200E0200070BD7B010020EC01002002
:1026800070B5124C2368002B04D020684288018862
:10269000130010E00E4B1B78002B03D00220FFF735
:1026A00033F920602568002DEFD10CE0C618367A8A
:1026B000002E03D001339D1A8B42F7DB002D02D18F
:1026C000FFF730FD2560280070BDC046EC010020FA
:1026D0007B010020324BF7B501220C001F00019056
:1026E0001A70002C58D02F4D2B68002B28D12E4E5D
:1026F0002E4B1B78DBB2002B18D00120FFF71EF900
:10270000052804D9013E2A4A002E09D10BE00123F5
:102710003B70FFF7E9FC234B18600028F2D00FE074
:102720001378002B06D001231370002301203B7087
:10273000404233E03B7000F041FA01233B70D7E7A1
:1027400000221B4B29681A7040234A88981A2300DC
:10275000844200D90300080008308018D2184A804B
:102760000022E41A934204D0019EB65C86540132E2
:10277000F8E7019AD31801934A880E4B3F2A02D8F2
:1027800005221A70ADE7402200260A8001201E7043
:10279000FFF722F92E60A4E720003C70FEBDC04682
:1027A000E0010020E4010020293200007B0100202C
:1027B000E8010020F001002007B56B46D87107330F
:1027C00001211800FFF786FF0EBDFFFF012070B545
:1027D0000E4D0F4C2B682070002B0FD10D4B1B782A
:1027E000002B02D1002020700EE0FFF7A7F805288B
:1027F000F8D8FFF779FC28600028F3D02B685888B8
:102800004023181A0023237070BDC046E401002045
:10281000E00100207B01002010B50E4B1B78002B3F
:1028200016D00D4C2168002912D04B88002B0FD0F8
:1028300000220A4802703F2B03DCC81802720133E1
:10284000F9E7402301200B80FFF7C6F8002323603F
:1028500010BDC0467B010020E4010020F0010020F3
:1028600010B50B4B1B78DBB2002B0FD1094C216844
:102870004A883F2A03DC881803720132F9E74023B3
:1028800001200B80FFF7A8F80023236010BDC0468D
:10289000E0010020E4010020EFF3108072B6434213
:1028A0005841C0B27047002800D062B67047FFFFA1
:1028B00010B5FFF7F1FF0C4A1468002C10D06369C3
:1028C0001360002B02D000229A6101E0074A1360D6
:1028D000FFF7E9FF002320006377A3689847E8E744
:1028E000FFF7E1FF10BDC046F4010020F801002011
:1028F00010B5FFF7DDFF10BD024A13680133136006
:102900007047C0469800002037B5022504002A0011
:10291000054901A802F080FE23682A005B6801A92E
:10292000200098473EBDC046A0590000F0B50D00FC
:102930000F2185B09446134A6944ACB22F0C57431B
:1029400001345443BBB2260C1C19A4193B0C240CB3
:10295000DB19E3180A245B085C432D1B3035013971
:102960000D701D1EE9D16346002B02D02D230139C5
:102970000B70CA4304ABD21803685B68984705B074
:10298000F0BDC04633330000002210B5914201DA99
:1029900049422D32FFF7CAFF10BDFFFFF0B51C0002
:1029A00089B00EAB1B780190029321002300100028
:1029B000150002F0BFFC4B49002814D1012266002B
:1029C00076085242484B2800310002F0B3FC002840
:1029D0000ED10122444B52422800310000F074FB1A
:1029E000002805D141490198FDF742FD040076E039
:1029F000E0223F4B12062800210000F06FFB002868
:102A000001D03C49EFE7E0223B4B120628002100B1
:102A100000F050FB0028F4D1002200232800210000
:102A200000F048FB071E03D0802301271B06E41893
:102A3000002600203149029B9E4207D0A022304B45
:102A4000120601F0A9FE731CDEB2F4E702000B00CF
:102A50002800210001F066FA0290039100F0C2FB09
:102A60003A00010005000198FFF760FF0400002E06
:102A700035D0280002F0F6FC02000B000298039902
:102A800002F004F92E2304AA1370321C0F2E00D971
:102A90000F220025D3B2029300221A4B01F07CFED4
:102AA0000F00060000F09EFB04AAC0B2AB180200A3
:102AB00030325A7002F094FC0B00020039003000F2
:102AC00002F0E4F8029B0135AB42E5D11A00019B0C
:102AD00001321B68D2B25B6804A9019898472000B4
:102AE00009B0F0BDA2590000FFFFEF7FAA59000016
:102AF000FFFFEF41A6590000FFFFEFC10000E03FDC
:102B00009999B93F0000244070B50C4C2668002EFE
:102B100000D10B4E0B49300000F0B0FA0A48484390
:102B200008490500300000F0C3F9084B5843281845
:102B300001D5074BC018206070BDC04608020020B8
:102B400024D95B071DF30100A7410000ECF4FFFF4F
:102B5000FFFFFF7F002110B50400884204D0FFF77B
:102B6000D3FF210000F0A0F9080010BD10B5FDF75B
:102B7000B3FCFDF797FE00F021F8FAE710B5FFF778
:102B80005DFD10BD10B5FFF72BFD10BD10B5FFF7B3
:102B900077FD10BD10B5FFF73FFE10BD10B5FFF774
:102BA00015FE10BD10B508001100FFF793FD10BD14
:102BB00010B50800FFF700FE10BDFFFFF8B52F4C61
:102BC0002278002A58D02E4E3378002B54D101336E
:102BD00033701A420DD0FFF753FD002801D000F0EA
:102BE000C1F8284B1B78002B03D001222378934394
:102BF000237023789B0712D50025234B1B78AB420B
:102C00000DD9224BAA00D7583B6838001B6998475A
:102C1000002801D03B6998470135EDB2EDE700236C
:102C2000337023785B0727D519490B68002B23D015
:102C3000EFF30583002B1FD1EFF3108272B6086803
:102C4000002803D0134C2578002D03D0002A13D17F
:102C500062B611E00123237043690B60002B01D0A1
:102C60009D6101E00C490B60002A00D162B600258D
:102C70008368457798472570F8BDC046E0FEFF1F82
:102C80000C020020D6FFFF1F1C02002010020020B3
:102C90000002002004020020FC010020F8B506001C
:102CA0000D00170000243900300000F0FDF80B0083
:102CB0003733DBB2092901D83031CBB230002B5584
:102CC000390000F06BF8061E01D00134EBE72B1938
:102CD00058702B005A1B944206DD1A78295D197032
:102CE0002A550133013CF5E72800F8BD30B585B021
:102CF00072B670224121154B1A70154A1170154A8F
:102D00003239117080221A701A7852B2002AFBDA16
:102D1000114B186862B6114B984201D80A235843E8
:102D200001AC0A222100FFF7B9FF00230C48E15C47
:102D30000500002905D05A008218013351800A2B62
:102D4000F5D101335B002B7005B030BD00000240AF
:102D50000700024006000240080002407F969800EB
:102D6000C0FFFF1F70470B0010B50100180002F0F4
:102D700005FC10BD02B4714649084900095C4900D0
:102D80008E4402BC7047C04603B4714649084000F7
:102D90004900095A49008E4403BC70470022430889
:102DA0008B4274D303098B425FD3030A8B4244D313
:102DB000030B8B4228D3030C8B420DD3FF22090255
:102DC00012BA030C8B4202D31212090265D0030B14
:102DD0008B4219D300E0090AC30B8B4201D3CB030A
:102DE000C01A5241830B8B4201D38B03C01A52414C
:102DF000430B8B4201D34B03C01A5241030B8B424E
:102E000001D30B03C01A5241C30A8B4201D3CB0238
:102E1000C01A5241830A8B4201D38B02C01A52411D
:102E2000430A8B4201D34B02C01A5241030A8B4220
:102E300001D30B02C01A5241CDD2C3098B4201D338
:102E4000CB01C01A524183098B4201D38B01C01AB6
:102E5000524143098B4201D34B01C01A524103092D
:102E60008B4201D30B01C01A5241C3088B4201D3DC
:102E7000CB00C01A524183088B4201D38B00C01A89
:102E8000524143088B4201D34B00C01A5241411AB0
:102E900000D20146524110467047FFE701B50020BD
:102EA00000F0F0F802BDC0460029F7D076E7704781
:102EB00003460B437FD4002243088B4274D303099B
:102EC0008B425FD3030A8B4244D3030B8B4228D33C
:102ED000030C8B420DD3FF22090212BA030C8B4262
:102EE00002D31212090265D0030B8B4219D300E002
:102EF000090AC30B8B4201D3CB03C01A5241830B87
:102F00008B4201D38B03C01A5241430B8B4201D336
:102F10004B03C01A5241030B8B4201D30B03C01A5F
:102F20005241C30A8B4201D3CB02C01A5241830AD9
:102F30008B4201D38B02C01A5241430A8B4201D308
:102F40004B02C01A5241030A8B4201D30B02C01A32
:102F50005241CDD2C3098B4201D3CB01C01A524199
:102F600083098B4201D38B01C01A524143098B4222
:102F700001D34B01C01A524103098B4201D30B010B
:102F8000C01A5241C3088B4201D3CB00C01A524130
:102F900083088B4201D38B00C01A524143088B42F5
:102FA00001D34B00C01A5241411A00D2014652418E
:102FB000104670475DE0CA0F00D04942031000D3AD
:102FC0004042534000229C4603098B422DD3030A02
:102FD0008B4212D3FC22890112BA030A8B420CD312
:102FE000890192118B4208D3890192118B4204D33B
:102FF00089013AD0921100E08909C3098B4201D3BB
:10300000CB01C01A524183098B4201D38B01C01AF4
:10301000524143098B4201D34B01C01A524103096B
:103020008B4201D30B01C01A5241C3088B4201D31A
:10303000CB00C01A524183088B4201D38B00C01AC7
:103040005241D9D243088B4201D34B00C01A52419E
:10305000411A00D20146634652415B10104601D32B
:103060004042002B00D54942704763465B1000D3B5
:10307000404201B5002000F005F802BD0029F8D05B
:1030800016E770477047C0468446101C62468C465F
:10309000191C634600E0C0461FB501F013FB002871
:1030A00001D40021C8421FBD10B501F067FA4042AB
:1030B000013010BD10B501F005FB002801DB002038
:1030C00010BD012010BDC04610B501F0FBFA00286C
:1030D00001DD002010BD012010BDC04610B501F07B
:1030E0008DFA002801DC002010BD012010BDC04673
:1030F00010B501F083FA002801DA002010BD01208C
:1031000010BDC0468446081C6146FFE71FB500F0AD
:1031100083FB002801D40021C8421FBD10B500F078
:103120000FFB4042013010BD10B500F075FB0028C8
:1031300001DB002010BD012010BDC04610B500F01D
:103140006BFB002801DD002010BD012010BDC04632
:1031500010B500F01DFB002801DC002010BD01208F
:1031600010BDC04610B500F013FB002801DA0020A6
:1031700010BD012010BDC0461C2101231B04984234
:1031800001D3000C10391B0A984201D3000A0839F8
:103190001B09984201D30009043902A2105C4018AF
:1031A0007047C04604030202010101010000000053
:1031B000000000009E2110B5C905041CFFF7D2FFD6
:1031C000002803D1201C00F005FE10BD9E21201C0C
:1031D000C90500F079FC00F0FDFD80231B069C462C
:1031E0006044F2E770B500220C4B04000D00FFF7BD
:1031F0007FFF002804D12000290002F0BBF870BD39
:10320000064B00222000290001F040FD02F0B2F838
:1032100080231B069C466044F1E7C0460000E04165
:10322000F8B54A02430244004E00C50F240E2800A0
:103230009B09360EC90F92098D4259D0A01B002858
:1032400000DC8DE0002E1AD1002A00D079E05A0768
:1032500004D00F221A40042A00D004335A0138D572
:103260000134FF2C00D189E028009B015B0AE4B205
:103270005B02E4055B0A2343C0071843F8BDFF2C3B
:10328000E5D08021C9040A431B2800DD89E016002F
:103290002021C640081A8240511E8A4132439B1A9F
:1032A0005A0114D59B019E093000FFF765FF0538D0
:1032B0008640844265DC041B330020200134E34057
:1032C000041BA640721E964100243343BFE75A07F1
:1032D000BFD1DF082800FF2C2FD1002F00D187E0BD
:1032E0008022D20313003B435B025B0AFF24BFE74B
:1032F000A11B002949DD002E29D0FF2CA7D0802654
:10330000F60432431B2900DD8DE017002026CF4054
:10331000711A8A40511E8A413A439B185A01D6D5E8
:103320000134FF2C64D0012276491A405B080B401F
:1033300013438CE7031ECAD100207B025B0AE4B270
:1033400096E701380028AAD0FF2C9DD17FE7002AFC
:1033500000D17CE701390029DFD0FF2CD2D176E7FC
:10336000002820D1601CC0B2012853DD80279E1A9E
:10337000FF0437402FD0D61A0D0095E72800002310
:1033800076E7614B241A334061E700294DD1611C77
:10339000CEB2012E2FDDFF292AD09B185B080C002E
:1033A00055E701227BE7002C1BD1002B5BD0C043EB
:1033B00000280CD0FF2E7ED01B2800DD92E01D00DF
:1033C0002024C540201A8340581E83412B43D31A22
:1033D00034000D0064E7002E00D065E700200024D3
:1033E000ABE7FF2E67D08024E40440422343E3E7A9
:1033F000FF2400233CE7002C61D1002B7ED0002A63
:1034000000D124E79B185A0100D460E73E4A0C0023
:1034100013401CE7002C1ED1002B2FD1002A66D0B0
:1034200013000D0013E7012277E7002C1FD1002BBA
:103430005AD0C94300290BD0FF2E50D01B295FDC86
:103440001F002024CF40611A8B40591E8B413B4303
:103450009B18340062E7002B1CD1002A4AD01300CD
:103460000D00FF24F3E6130034000D00EFE6FF2EFD
:1034700035D08024E40449422343DFE7002A00D109
:10348000E5E68027981AFF04074000D152E7D31AD7
:103490000D00DCE6FF24002A00D1D8E68020DB08FE
:1034A000C003034204D0D208024201D113000D0030
:1034B000DB00FF24CBE61300FF240D00C7E6002B42
:1034C0000DD0FF24002A00D1C1E68021DB08C9030A
:1034D0000B42EDD0D2080A42EAD11300E8E713000C
:1034E000FF24B4E6012372E713003400AFE600279F
:1034F000002022E780270020FF03F1E61300A6E664
:103500000123A5E7FFFFFF7DFFFFFFFBF0B5564658
:1035100044465F464D46F0B444024600C70F83B0B0
:103520008846650A360EBA463DD0FF2E22D00023CB
:10353000EC00802599469B46ED0425437F3E43469B
:103540005C025800DB0F640A000E984636D0FF2854
:1035500030D080230021E400DB041C437F38301A84
:103560000190484642460843724E800030587A40E7
:1035700013008746002D44D108239946063B9B46FD
:10358000DDE70122FF2000241A406402C305640A1B
:10359000D2071C431443200003B03CBC904699461C
:1035A000A246AB46F0BD002D20D104239946033B33
:1035B0009B46C4E7002C17D1022102E0002C0AD15F
:1035C0000121321A01924A4643460A435A48920060
:1035D00082587B4097462000FFF7CEFD431F763090
:1035E0009C4040420021BAE70321B8E72800FFF7DA
:1035F000C3FD431F9D4000237630464299469B46BB
:103600009DE70C239946093B9B4698E780240022BE
:10361000E403FF20B9E70024C2468B465A465346CE
:10362000022AAED0032A7DD0012A31D10122002006
:103630001A400024A9E70122101A1B2856DD1A405F
:1036400000200024A1E78023DB031D424BD180230F
:10365000DB032B435C02640A3A00FF2095E76D010F
:103660006001854230D2019A0024013A01921B2266
:103670000127290064006D00002901DBA84201D860
:103680002D1A3C43013A002AF3D16A1E95412C437E
:1036900001987F300028CEDD620704D00F2222403F
:1036A000042A00D00434220103D5244A019814408E
:1036B0008030FE2800DD64E70122A401640AC0B264
:1036C0001A4062E72C00A9E72D1A1A220124CFE73D
:1036D0006B02BCD500248023DB031C436402640A14
:1036E0004246FF2051E71C42B3D1F4E721002022DB
:1036F000C140101A8440621E94410C43620704D0FA
:103700000F222240042A00D00434620104D5012291
:1037100001201A40002438E70122A401640A1A405B
:10372000002032E78023DB031C436402640A524614
:10373000FF202AE7445A0000845A0000FFFFFFF7E9
:10374000430270B542004C005D0AC30F4802120EDE
:10375000460A240EC90FFF2A0FD0FF2C11D00120DA
:10376000A24200D070BDB542FCD18B420DD0002AE0
:10377000F8D12800431E9841F4E70120002DF1D133
:10378000EBE70120002EEDD1E9E70020EAE7C04693
:103790004302F0B542005D0AC30F4802440A4800E4
:1037A000120E000EC90FFF2A1FD0FF2822D0002AB8
:1037B00009D16E426E4100280FD1002C0DD100209E
:1037C000002D09D005E0002801D1002C01D08B424A
:1037D00013D0584201231843F0BD002EF7D04842C1
:1037E0004141012049420843F6E7002DDDD0022087
:1037F0004042F1E7002CDAD0F9E78242E9DC04DB51
:10380000A542E6D80020A542E6D258424341012015
:103810005B421843E0E7C0464302F0B542004C006B
:103820005E0AC30F4802120E450A240EC90FFF2A72
:1038300017D0FF2C19D0002A0BD170427041002CF8
:1038400017D0002807D0484241410120494208438F
:10385000F0BD002C13D08B4214D0584201231843E2
:10386000F6E70220002EF3D1E3E70220002DEFD18E
:10387000E1E7002DE5D10020002EE9D0EDE7002D95
:10388000E9D1EAE7A242E8DC04DBAE42E5D8002059
:10389000AE42DDD25842434101205B421843D7E794
:1038A000F0B557464E4645464300E0B446028846CA
:1038B000760A1F0EC40F002F47D0FF2F25D00023FC
:1038C00080259A469946F600ED042E437F3F4346F5
:1038D00042465D02D20F5B006D0A1B0E904640D03F
:1038E000FF2B39D080220020ED00D20415437F3B0E
:1038F000FB1842465746591C62408C4607430F2F1F
:103900005CD86F49BF00C9598F46002E45D10823A6
:103910009A46063B9946DAE7424602282DD003280C
:1039200000D1C3E0012800D0A2E00025002602401B
:10393000D4B27602ED05760A2E43E4072643300022
:103940001CBC90469946A246F0BD002E1AD1042315
:103950009A46033B9946BAE72A00511E8A41901CB9
:10396000C6E70120002DC3D02800FFF705FC431F48
:1039700076309D4043420020BAE70124FF251440E1
:103980000026D6E73000FFF7F7FB431F9E400023D9
:10399000763047429A46994699E70C239A46093B66
:1039A000994694E780260024F603FF25C1E73500F9
:1039B0004846B2E7350022004846AEE72904090C24
:1039C0000800370C3604360C2C0C794370436743DF
:1039D0007443060C64183619B14203D98021490298
:1039E000884647440004000C310409188D01681E04
:1039F0008541890E2943350CED19AD010D4329018F
:103A000004D5012369081D4063460D4319007F3129
:103A1000002925DD680704D00F202840042800D0A5
:103A20000435280103D5274980330D401900FE29AC
:103A3000A3DC0124AD016E0A1440CDB279E78020E9
:103A4000C003064207D0054205D128434602760A44
:103A50004446FF256DE706437602760AFF2568E7B0
:103A60000124611A1B2905DD14400025002660E7AA
:103A70006346CBE72E002023CE40591A8D406B1EA3
:103A80009D412E43730704D00F233340042B00D0F5
:103A90000436730104D5012401251440002648E7AB
:103AA0000124B601760A1440002542E7802601244D
:103AB000F6032E437602760A1440FF2539E7C04606
:103AC000C45A0000FFFFFFF7F8B54A024E00430258
:103AD0004400240EC50F9B09360EC90F9209FF2E14
:103AE00000D183E001204140A01BA9425CD0002806
:103AF00000DC95E0002E1CD1002A00D081E05A079E
:103B000004D00F221A40042A00D004335A013BD5B6
:103B10000134FF2C00D191E001209B015B0AE4B24B
:103B200005405B02E4055B0AED0723432B431800C5
:103B3000F8BDFF2CE3D08021C9040A431B2800DD17
:103B400090E016002021C640081A8240511E8A418A
:103B500032439B1A5A0115D59B019E093000FFF78D
:103B60000BFB0538864084426CDC041B33002020AC
:103B70000134E340041BA640721E964100243343E7
:103B8000BDE70D005A07BCD1DF0801231D40FF2C03
:103B900033D1002F00D190E08022D20313003B43A9
:103BA0005B025B0AFF24BCE700284FDD002E2ED00D
:103BB000FF2CA4D08025ED042A431B2800DD97E0CC
:103BC00016002025C640281A8240501E82413243EA
:103BD0009B185A01D5D50134FF2C6DD001227B48AA
:103BE0001A405B08034013430D0088E7002A00D009
:103BF0007AE777E7031EC5D100257B025B0AE4B2B2
:103C00008FE701380028A4D0FF2C97D177E7002A4E
:103C100000D174E701380028DAD0FF2CCDD16EE74F
:103C2000002821D1601CC0B2012858DD80279E1ACF
:103C3000FF0437402FD0D61A0D008FE701231D4017
:103C400000236EE7624B241A334058E7002851D115
:103C5000601CC6B2012E33DDFF282DD09B185B08F7
:103C600004004CE7012274E7002C1AD0FF2E1FD06D
:103C70008024E404404223431B2800DD96E01D001D
:103C80002024C540201A8340581E83412B43D31A59
:103C900034000D005EE7002E00D05FE70025002411
:103CA000ABE7002B44D0C0430028F0D0FF2EE3D177
:103CB0001300FF240D0022E70D00FF24002330E74E
:103CC000002C5DD1002B7DD0002A00D117E79B1876
:103CD0005A0100D456E73E4A040013400FE7002C77
:103CE0001ED1002B2FD1002A65D013000D0006E74E
:103CF00001226DE7002C1FD1002B59D0C0430028B2
:103D00000BD0FF2E4FD01B285EDC1D002024C540A9
:103D1000201A8340581E83412B439B18340058E7D8
:103D2000002B1CD1002A49D013000D00FF24E6E629
:103D3000130034000D00E2E6FF2E34D08024E404AA
:103D400040422343DFE7002A00D1D8E68027981AB3
:103D5000FF04074000D14DE7D31A0D00CFE6FF2442
:103D6000002A00D1CBE68020DB08C003034204D048
:103D7000D208024201D113000D00DB00FF24BEE691
:103D8000002B10D0FF24002A00D1B8E68020DB08E9
:103D9000C003034203D0D208024200D11300DB006B
:103DA0000D00FF24ABE61300FF24A8E601236EE715
:103DB00013003400A3E6002700251EE78027002516
:103DC000FF03E9E613009AE60123A6E7FFFFFF7D64
:103DD000FFFFFFFB4302590A4300C20F1B0E0020E6
:103DE0007E2B0EDD9D2B0DDC802000040143952BE6
:103DF0000BDC9620C31AD9400B005842002A00D190
:103E000018007047034BD018FBE7963B99400B0016
:103E1000F3E7C046FFFFFF7F70B5002830D0C3171F
:103E2000C5185D40C40F2800FFF7A6F99E231B1A92
:103E3000962B0DDC9622D21A95406A02520AD8B20D
:103E40005202C005520AE40702432243100070BD2B
:103E5000992B19DC9922D21A9540124A2A406907F7
:103E600004D00F210D40042D00D00432510103D5A0
:103E70000C4B1A409F231B1A9201520AD8B2DFE75B
:103E8000002400200022DBE705222E00121AB921AF
:103E9000D6402A00C91A8A40551EAA41350015434A
:103EA000DBE7C046FFFFFFFB70B5041E28D0FFF71D
:103EB00063F99E231B1A962B0ADC9622D21A944091
:103EC0006202520AD8B25202520AC005104370BDB3
:103ED000992B18DC9922D21A9440114A224061078A
:103EE00004D00F210C40042C00D00432510103D522
:103EF0000B4B1A409F231B1A9201520AD8B2E2E7D9
:103F000000200022DFE705222500121AB921D54042
:103F10002200C91A8A40541EA2412C001443DCE737
:103F2000FFFFFFFBF8B556465F464D464446F0B4EA
:103F30000F00FD0FAA4609037C002E005F00450F0D
:103F4000490A7F0D2943C5001803BC46400A570F94
:103F5000640DDB0F3843D2009A4500D1AAE06646D3
:103F6000A61B002E00DCFFE06346002B39D10300C6
:103F7000134300D0D9E06B0709D00F232B40042B4B
:103F800005D02B1DAB42AD416D4249191D000B02FE
:103F900000D482E0CA4B01349C4200D1FEE00A000A
:103FA0005646C84BED081A405007640552020543B7
:103FB000120B640D002112030B0D1B056405120B7F
:103FC0001A436308C04CF60714401C43640064089D
:103FD0003443280021003CBC90469946A246AB469B
:103FE000F8BDB74B9C42C6D080231B041843382E23
:103FF00000DDEBE01F2E00DD1EE120239B1B9C4615
:1040000003006746BB40984613004746F3403B43D6
:104010006746BA40571EBA4113430200F240EB1AFA
:104020009D42B6411D008A1A7642911B0B0231D582
:104030004A02560A002E00D1B4E03000FFF79CF887
:104040000300083B1F2B00DDB5E020222900D21A17
:10405000D1409E400A009D4032439C4200DDB1E0C9
:104060001C1B631C1F2B00DDD5E020211400280041
:10407000C91A8C40D8408D400443DA40681E8541FF
:1040800011002543002476E74146314300D134E254
:10409000310045466B0700D06FE756464807ED08EC
:1040A000C9080543864B9C4235D00A036405120BB0
:1040B000640D7FE76346E31A9B46002B00DC8BE030
:1040C0006746002F3CD07E4FBC4200D153E780278B
:1040D0003F0438435B46382B00DCF7E00243501EB8
:1040E00082410020D2B253194218AB4289411D00CF
:1040F000494289180B02CDD5714B01349C4200D145
:104100003DE101206F4A6B080A4028401843D5075B
:10411000054351082FE72B000B4300D1CBE180234F
:104120001B030B431A03120B44E7013E002E6DD113
:10413000AE1AB5429B41091A5B42C91A350075E7B0
:104140000700174300D116E701235B429C46E34476
:104150005B46002B00D0E0E0AA18AA429B41091858
:104160005B4259181500C5E7002E75D1661C76050F
:10417000760D012E00DCF3E0AE1AB0464545BF4196
:104180000E1A7F42F61B370200D48FE0551BAA425D
:10419000B641411A76428E1B9A464BE7564600229C
:1041A000002507E72800FEF7E7FF20300300083B63
:1041B0001F2B00DC49E72A002838824000259C425A
:1041C00000DC4DE73F49E41A1140D4E60243501E9B
:1041D0008241D3B2002222E7002B00D0F3E0631C1F
:1041E0009C465B055B0D012B00DC9FE0344B9C453E
:1041F00000D1C3E0AA180918AA42804140424118E0
:10420000CD075208154349086446B4E62C4B9C423E
:1042100000D0ECE6AFE611001F3CE1400C00202B83
:1042200000D17FE04021CB1A9A4015436A1E954188
:104230000021254300242DE733000700203BDF4009
:104240003B00202E70D04027BE1BB0400243501EC2
:10425000824113430022E2E6002C4FD0184CA445C3
:1042600000D1ABE08024240476422143382E00DDC7
:10427000DFE01F2E00DD43E12027BC1BA1460C0020
:104280004F46BC40A0462C004746F4403C434F46B6
:10429000BD406F1EBD41F1402C43151BAA42924107
:1042A000411A5242891A64469A46BFE6414645463B
:1042B000314300D0BEE6002600240025F2E6C046C9
:1042C000FF070000FFFF7FFFFFFF0F801F2B59DC60
:1042D0002027FF1ABC46070063469F405B46B9464D
:1042E0001700DF40B8464F4643461F4363469A4097
:1042F000531E9A415B463A43D840F4E60C002C43E7
:104300005CD0F643002E55D1551BAA42A441411A58
:104310006442091B9A46644688E6964FBC4200D028
:10432000D8E628E6002280E700208FE70B002B4329
:10433000002C00D0C2E0002B00D101E103001343A8
:1043400000D118E6AB18AB42B64109187642711895
:104350000A0200D409E1884A1D00114064460AE6B9
:10436000002C5BD10E002E4300D08AE001001143E7
:1043700000D1C2E0010015009A46FCE56446002128
:1043800000258FE620235B429C46DC446346070001
:10439000DF405B46BC46202B00D1ACE040235F46AB
:1043A000DB1B98400243501E8241634613431A00B0
:1043B000002098E66F4CA44500D057E70100150097
:1043C00064469A46D7E5002C39D10C002C436ED0B8
:1043D000DB43002B1AD0674CA44568D0382B00DD96
:1043E000A4E01F2B00DDAEE020240F00E41AA7405C
:1043F000B9462F00DF40B846A3464F464446274300
:104400005C46A5406C1EA541D9403D43AD18954280
:104410009B4109185B42591864466BE60C002C431B
:1044200015D1010011437BD0010015009A46514C73
:10443000A1E50D43691E8D410021ECB22DE74D4CE5
:10444000A44534D0802424045B422143C6E7040001
:1044500014434ED0ED084C072C438025C9082D038A
:10446000294208D0C6082E4205D1D208410711437F
:104470000C009A463100620FC900E50011433D4C23
:1044800079E50600164300D175E5AE1AB0464545FC
:10449000BF410E1A7F42F61B370200D4F4E5551BCC
:1044A000AA42B641411A7642891B9A4663E5010049
:1044B000150064465FE5002200257BE5002B3BD01C
:1044C0000300134315D0ED084B072B438025C90883
:1044D0002D03294207D0C4082C4204D141070B0008
:1044E0002100D2081343C9005A0F1143DD00214CAB
:1044F00041E5204C3FE5002054E700260025D1E5AA
:1045000034000F00203CE7403C00202E2BD04027F9
:10451000BE1BB1400D43691E8D4100212C43BCE6FA
:10452000802100260903134C0025BBE50D43691EBD
:104530008D410021EDB269E7010015000D4C1AE52F
:104540000100150017E51C000F00203CE7403C006F
:10455000202B0CD04027FB1A99400D43691E8D413A
:104560000021254352E70021D4E71D0092E50021F8
:10457000F3E7C046FF070000FFFF7FFFF0B55F468F
:1045800056464D464446F0B41F035C00DB0F9A4686
:10459000194B0E034D00C90F8046360B6D0D8B462F
:1045A00091463F0B640D9D4219D0134B9C421BD08A
:1045B0000123A54206D018003CBC90469946A2466D
:1045C000AB46F0BDBE42F6D1C845F4D1D34510D0BC
:1045D000002DF0D1304303005A1E9341EBE7310028
:1045E00001230143E7D1E0E73A430123002AE2D166
:1045F000DEE70023DFE7C046FF070000F0B55F46B7
:10460000444656464D46F0B41F033C0B2C4F0E0358
:104610004D00A3465C008446360B6D0DC90F9046D5
:10462000640DDB0FBD422BD0254FBC422ED0002D98
:104630000ED130430700814678427841002C17D1D3
:104640005F463A4314D14B460020002B0AD006E0C7
:10465000002C02D15846024301D099421AD00123BE
:10466000484218433CBC90469946A246AB46F0BD32
:104670000028F2D058425841012240421043F1E74D
:1046800037000743D0D002204042EBE75F46174394
:10469000CDD0F8E7A542E2DC05DB5E45DFD808D0E7
:1046A00000205E45DED24842484101234042184383
:1046B000D8E7C445D3D80020C445F4D3D2E7C046D8
:1046C000FF070000F0B55F464D4644465646F0B43D
:1046D0001C03240BA4462F4C0F034D005E00C90F92
:1046E00080463F0B6D0D8B469146760DDB0FA54244
:1046F00020D0284CA64222D0002D12D1384344426B
:104700004441002E20D0002C0DD05C426341012496
:104710005B421C4320003CBC90469946A246AB46F7
:10472000F0BD002E17D05B4519D05B465C420123DB
:104730001C43EFE7390002240143EBD1D9E761467E
:1047400002241143E6D1D7E761460A43DBD10024B6
:104750000028DFD0E9E761460A43E4D1E5E7B54246
:1047600003DD01225C421443D4E7B542CDDB67454B
:10477000DBD809D000246745CCD259464C42614170
:10478000012449420C43C5E7C845CED80024C8459A
:10479000F3D3BFE7FF070000F0B55F4656464D462E
:1047A0004446F0B40D0399464E002B0B87B007002A
:1047B000924680469B46760DCC0F002E69D06D4BFD
:1047C0009E4235D05B468022DD001204430F134326
:1047D0002B439B46C3009846674B00279C4600230B
:1047E000664401934A4615035000D20F53462D0BE1
:1047F000400D914600D176E05E4A90426CD0802216
:104800005B0F120413435C4AED0094461D4353466C
:104810000022DB00604449463618701C614002905B
:1048200017430F2F00D9AFE05448BF00C759BF4608
:104830005B461F4300D088E000239B469846023326
:1048400008270193CEE74946022A6AD0032A00D1FD
:1048500009E2012A00D0BBE111400022002300251B
:104860009046CCB200212D030A0D12052D0B1543E5
:10487000434A1B0515401D436D00E4076D082543A1
:104880004046290007B03CBC90469946A246AB463C
:10489000F0BD034352D05B46002B00D18AE158465D
:1048A000FEF76AFC03000B3B1C2B00DD7BE11D22A5
:1048B000D31A3A0001005D46DA4008398D401300F2
:1048C0008F402B439B46B8462E4B00279C46002327
:1048D00060444642019385E752462A432CD1002585
:1048E0000023022297E752462A4321D0002D00D10F
:1048F00054E12800FEF740FC03000B3B1C2B00DDBD
:1049000046E11D21CB1A51460200D9405346083AD0
:10491000954093400D431B4A944660444042002218
:1049200079E7012400220C40124B0025904699E7BC
:104930000025002301226EE703226CE700239B463B
:1049400098460133042701934CE703230C27019376
:1049500048E700238025984600242D03054B81E776
:104960005D464346019A6FE75D4643462100019A42
:104970006AE7C046FF07000001FCFFFF045B000080
:10498000FFFF0F80F30300004246120C91461A0C01
:104990009446424617044A461B041B0C5A43604681
:1049A00090464A4642431000039262461C003F0C68
:1049B0007A437C4342440192220C9246019A52442B
:1049C000904506D98246802040028046C244504627
:1049D0000390100C049048462404240C120412196D
:1049E00005922A0C2D042D0C68432C008246484663
:1049F0007C4350438146200C8046574357444744EC
:104A0000BA4503D9802040028046C144380C3F0497
:104A1000B84648442404240C01900498A04440441F
:104A200004905846000C814658460404200C8246E7
:104A3000070048465F434C46434360466043644634
:104A4000834650464443380C8446E4186444A342E9
:104A500003D980235B029C46E34448463F04230C71
:104A60003F0C2404E419574668436F4384464D467F
:104A7000504655434243380C814662444A445B44A5
:104A8000944503D9802040028446654403983F043E
:104A9000834604983F0C8446E344C345804140422A
:104AA0008246100484460198674484466744A344C0
:104AB000BC46A345A4419946D44464428742BF41C1
:104AC000D4458041E144A04699459B417F42404204
:104AD000C8440743120CBA18A045A4415F423B00EA
:104AE00064422343D71843467D19DB0D6D021D43F5
:104AF0005B465A02059B1A43531E9A415B46DB0DE7
:104B00001A4343465B021343EA0107D501225C08BE
:104B100013402343EA07029E13436D08574AB21815
:104B2000002A4BDD580709D00F201840042805D073
:104B3000181D98429B415B42ED180300E80104D523
:104B40004F4A15408022D200B2184E48824200DD02
:104B5000E7E60124DB08680718436D025305804629
:104B60002D0B5B0D0C407DE680225946120311424D
:104B700008D0154206D115432D0398462D0B4C46FF
:104B8000414B6FE65D4615432D032D0B3E4B69E609
:104B900003005546283B9D400023BCE65046FEF7E7
:104BA000EBFA2030A8E60300283B9F400023BB46D9
:104BB000984689E6FEF7E0FA203073E60124A61A4B
:104BC000382E07DD00220C4000230025904649E6E0
:104BD000029EA3E71F2E20DC20222C001800921B2F
:104BE000F040944093400443581E83411C43F540D9
:104BF000630709D00F232340042B05D023001C1D7D
:104C00009C4292415242AD182B021FD50124002232
:104C10000C4001230025904624E61F202C00404232
:104C2000821AD440202E1CD04022961BB5402B4324
:104C3000581E83410720234318400025002809D02F
:104C40000F2200251A401C00042AD8D1230068072F
:104C50006D022D0B0124DB08034398460C40002312
:104C600000E60025E3E780220124120315432D030B
:104C700098462D0B0C40044BF4E5C046FF030000A2
:104C8000FFFFFFFEFE070000FF070000F0B55746DC
:104C90004E464546E0B40E001100F20F9246C500A4
:104CA000420F180337037400400A4E0F7F0A304347
:104CB000CF4E17435A00640D520DDB0FC900B242AC
:104CC00000D1E5E001267340A61AB446534500D151
:104CD000AFE0002E00DC0DE1002A3AD103000B43C7
:104CE00000D0E4E06B0709D00F232B40042B05D044
:104CF0002B1DAB42AD416D427F191D003B0200D41C
:104D000088E0BB4B01349C4200D110E13A00B94B22
:104D100051461A4001235007ED085202640505432D
:104D2000120B640D0B400021280012030D0D120B15
:104D300064052D0515436208AF4CDB072C40144376
:104D4000640064081C4321001CBC90469946A2469E
:104D5000F0BDA74B9C42C5D080231B04184363467B
:104D6000382B00DDFDE01F2B00DD30E16246202303
:104D70009B1A02009A40664690460A009940F2400B
:104D800046464B1E99413243114363460200DA40C6
:104D9000691A8D429B410D00BA1A5B42D71A3B0239
:104DA00035D57A02530A98464346002B00D1C4E019
:104DB0004046FEF7E1F90300083B1F2B00DDC5E08C
:104DC00020222900D21A4746D1409F400A009D4028
:104DD0003A439C4200DDC0E01C1B631C1F2B00DD1E
:104DE000E4E0202114002800C91AD8408C408D40EE
:104DF0000443DA40681E854117002543002471E70B
:104E0000424663461A4300D14CE2674645466B076B
:104E100000D069E7012351467807ED08FA080B40F6
:104E2000054373498C4238D012036405120B640D9C
:104E300079E7002E00DC9AE0002A47D06C4A9442C1
:104E400000D14FE78022120410436246382A00DC6A
:104E500008E10143481E81410022C9B24919D21913
:104E6000A942BF410D007F42BF183A0200D442E17F
:104E70005F4A0134944200D14EE101205D4A690845
:104E80003A4028400843D507054357089A4629E782
:104E900006000E4300D017E714E72900114300D1A4
:104EA000F9E1802109030A431203120B3BE70123B6
:104EB0005B429846C4446346002B72D1691A8D4206
:104EC0009B413F1A5B42FF1A0D0068E702000A434C
:104ED00000D107E7012252429046C4446246002AAC
:104EE00000D0E6E06918A942B6413F187642F719AA
:104EF0000D00BAE7002E00D080E0621C5205520D72
:104F0000012A00DCF9E06A1A91464D45B6413A1A89
:104F10007642921B9046120200D499E04D1BA942A2
:104F20008941C71B49427A1A90469A463CE7524645
:104F30000123002513400022F5E62800FEF71CF9A6
:104F400020300300083B1F2B00DC39E72A002838FB
:104F5000824000259C4200DC3EE7264FE41A1740C1
:104F6000C0E60143481E81410022C9B210E7002E6D
:104F700000D0F1E0621C94465205520D012A00DC7B
:104F8000A0E01B4A944500D1C5E06918A9429241AE
:104F90003F185242D2194908D5070D4357086446B5
:104FA000A0E6134B9C4200D0D9E69BE611001F3CC3
:104FB000E1400C00202B00D180E04021CB1A9A4028
:104FC00015436A1E95410027254300241FE76346C9
:104FD0000200203BDA406346202B71D04023664616
:104FE0009B1B98400143481E814111430022CFE69C
:104FF000FF070000FFFF7FFFFFFF0F80002C48D05E
:10500000CA4CA24200D1A2E07442A14680242404EA
:1050100027434C46382C00DDDBE01F2C00DD44E14B
:105020004E462024A41B3E00A640A246B0464C4655
:105030002E00E640B4464646644626435446A54004
:105040006C1EA54134002C434D46EF400D1B28E05B
:105050004A4643464D461A4300D0A5E600230024A5
:105060000025DEE61F2A5ADC66462022921B060037
:1050700096409146B04662460E00D64042461643E0
:105080004A4691404A1E9141020060463143C24067
:10509000E4E63C002C435AD0F443A146002C52D104
:1050A0004D1BA9428941C71B49427F1A14009A46E9
:1050B00075E69E4A944200D0C7E613E600227FE7D9
:1050C00000208FE7002C00D0C8E03B002B4300D12C
:1050D0000FE103000B4300D104E66918A9429B418C
:1050E0003F185B42DF193B0200D41AE1904B0D00E0
:1050F0001F406446F6E59A4689E63A002A43002CAA
:105100005CD1002A75D102000A4300D1CAE0070031
:105110000D009A46E6E564460022002581E66246D7
:105120000600203AD6406246B046202A00D1B7E0B9
:1051300040226646921B904001434246481E8141F0
:10514000114300228AE6794CA24200D061E70700B1
:105150000D0014009A46C5E5002C41D13C002C43BB
:1051600078D0F443A146002C20D0704CA24271D0DC
:105170004C46382C00DDB2E01F2C00DDBCE02026C0
:10518000341BA2463C005646B4404E46A0462C0076
:10519000F440A446444666463443A4465446A540DB
:1051A00064466E1EB54125434C46E7406D188D425E
:1051B00089413F184942CF19140056E6002A2FD1E1
:1051C00002000A4300D184E007000D009A46574CC4
:1051D00088E53D436F1EBD41ECB200270D1B60E723
:1051E000524CA24236D0744280263604A146374340
:1051F000BEE702000A4300D174E56A1A90464545AD
:10520000B6413A1A7642921B9446120200D4F7E550
:105210004D1BA9428941C71B49427F1A9A4661E545
:1052200002000A433AD0ED087C072C438025FA0897
:105230002D032A4208D0C7082F4205D145072C006C
:105240003A009A46C9080C43670FD200E50017439D
:10525000364C47E507000D00140043E53A002A43A9
:1052600043D002000A4319D0ED087C072C43802567
:10527000FA082D032A4207D0C6082E4204D1470758
:105280003C003200C9080C43D700620FE500174309
:105290009A46264C26E50022002544E5234C21E5CC
:1052A000002049E700230025BBE54C463E00203C9A
:1052B000E6404C46B446202C31D040244E46A61B36
:1052C000B7403D436C1EA54164462C4300270D1B8F
:1052D000E7E6802200231203144C0025A1E53D439C
:1052E0006F1EBD410027EDB260E707000D000F4CB7
:1052F000F8E407000D00F5E44E463C00203EF44083
:10530000A0464C46202C0ED040244E46A41BA7405D
:105310003D436F1EBD4144460027254346E7002715
:10532000CFE70D0073E50027F2E7C046FF07000056
:10533000FFFF7FFF70B50E4E0C031D0349005B009D
:10534000240B490D2D0B5B0DB14204D00849002000
:105350008B4208D070BD04430120002CFAD10449CF
:1053600000208B42F6D115432800451EA841F1E7E5
:10537000FF0700000B0330B5134D1A0B4B005B0DFC
:10538000C90F0024AB4211DD104CA34210DC802475
:10539000640322430E4CE41A1F2C0CDD0D48C31A83
:1053A000DA4013005C42002900D11C00200030BD0F
:1053B000094BCC18FAE7E040084CA44663449A40F5
:1053C00013000343EEE7C046FE0300001D04000087
:1053D0003304000013040000FFFFFF7FEDFBFFFF1D
:1053E00070B5002830D0C317C4185C40C50F20002A
:1053F000FDF7C2FE174B184A1B1AD21A1F2A18DDD6
:10540000164AD21A9440002224035B05240B5B0D3C
:105410000021100024030A0D1205240B1443104A26
:105420001B0514401C436400ED0764082C43210055
:1054300070BD210091400A000B21081AC4405B0591
:105440002403240B5B0DE3E7002500230024002246
:10545000DEE7C0461E040000330400001304000011
:10546000FFFF0F8070B5051E28D0FDF785FE154B98
:10547000154A1B1AD21A1F2A16DD2C00134A0025C2
:10548000D21A94405A052403240B520D0021240300
:105490000B0D240B1B0523430D4C12052340134316
:1054A0005B002800590870BD0B212C00081AC4406D
:1054B000954024035A05240B520DE7E700220024EF
:1054C000E4E7C0461E04000033040000130400009B
:1054D000FFFF0F804200120E511C4302C9B270B58B
:1054E0005D0AC40F012915DDE02189008C466D0796
:1054F0001B0B6244002128000D0D2D052B431C4D74
:1055000052052B40520813435B00E4075B0823431A
:10551000190070BD002A15D1002D1FD02800FDF7FD
:105520002BFE0A281DDC0B232A001B1ADA4013006D
:105530000200153295400F4A1B03121A52051B0B2D
:10554000520DD7E7002D06D080221B0B1203134308
:105550006D07094ACEE7084A0023CBE70022002363
:10556000C8E703000B3B9D402B000025E3E7C04646
:10557000FFFF0F8089030000FF07000070B5054C96
:1055800005001300201E04D00A000220290000E0BC
:1055900000BF70BD00000000014B18687047C04696
:1055A000380000200E4B70B500251E000D4CE41A8B
:1055B000A410A54204D0AB00F35898470135F8E792
:1055C00000F0F0FA084B00251E00084CE41AA41065
:1055D000A54204D0AB00F35898470135F8E770BDF9
:1055E000B05B0000B05B0000B05B0000B85B000087
:1055F00010B5034B0100186800F06CF810BDC046F0
:105600003800002010B5034B0100186800F016F8B0
:1056100010BDC04638000020002310B59A4203D0C8
:10562000CC5CC4540133F9E710BD030082189342E7
:1056300002D019700133FAE77047FFFF70B505001B
:10564000002944D00C1F2368002B00DAE41828003E
:1056500000F0B9F81E4A13681100002B02D16360F4
:10566000146031E0A3420DD92268A018834203D10F
:1056700018685B688218226063600C6024E0A242B4
:1056800003D813005A68002AF9D11E689819A0425D
:105690000BD12168711858181960824214D1106812
:1056A0005268411819605A600EE0A04202D90C23DA
:1056B0002B6009E021686018824203D110685268AB
:1056C0004118216062605C60280000F07DF870BDC8
:1056D00024020020032370B5CD1C9D43083506002D
:1056E0000C2D01D20C2501E0002D01DBA94202D9CD
:1056F0000C23336048E0300000F065F8234B1C6851
:105700001A002100002913D00B685B1B0DD40B2B52
:1057100002D90B60CC181EE08C4202D16368136082
:105720001AE04B6863600C0016E00C004968E9E77A
:10573000174C2368002B03D1300000F02BF82060B9
:105740002900300000F026F8431C18D00323C41CA5
:105750009C43A0420DD12560300000F035F82000B8
:1057600007220B30231D9043C31A0ED05A42E25039
:105770000BE0211A300000F00DF8431CEBD10C2394
:105780003000336000F020F8002070BD24020020BB
:1057900020020020002370B5064C0500080023609D
:1057A000FBF77EFF431C03D12368002B00D02B6046
:1057B00070BDC046740200200023C25C0133002A81
:1057C000FBD1581E704770477047447265616D2069
:1057D0004D616368696E65210053756D56616C3A61
:1057E000200020202050617363616C733A2000FF19
:1057F00034800440400000001211FFFFFF0202004D
:1058000000001310FFFFFF0202000000080000006C
:105810000000000000000000450A0000730A0000BC
:10582000F5090000430A0000F9090000070A00001A
:10583000270A0000050E08090D0C06070F0B00448F
:1058400017FF050E08090D0C06070F0B004417FF84
:10585000FFFFFFFFFFFFFFFFFFFF1A1B420000F8E3
:1058600040A0044001000000420000F844A00440B1
:1058700002000000C00000F800C004400100000069
:10588000000000F80490044002000000000000F84E
:105890000890044004000000C00000F81CC0044050
:1058A00080000000C00000F810C00440100000009C
:1058B000C00000F808C0044004000000C00000F868
:1058C0000CC0044008000000800000F80CB0044048
:1058D00008000000800000F810B004401000000034
:1058E000800000F818B0044040000000800000F87C
:1058F0001CB0044080000000800000F814B0044098
:1059000020000000C00000F804C0044002000000B5
:10591000800000F800B0044001000000400000F8E2
:1059200000A0044001000000400000F804A0044072
:1059300002000000400000F80CA004400800000035
:10594000400000F808A0044004000000C00000F877
:1059500014C0044020000000C00000F818C004403B
:1059600040000000800000F804B004400200000085
:10597000800000F808B0044004000000020100F8B4
:1059800050D0044010000000020100F854D0044040
:1059900020000000030100F878D00440400000001F
:1059A0000D0A6E616E006F766600696E6600FFFF1D
:1059B0000000000000000000B12B0000A52B00003B
:1059C0009D2B0000952B00008D2B0000852B0000E7
:1059D0007D2B00001519151900010000E1FEFF1FC5
:1059E00012000000000200000CFFFF1F7300000007
:1059F000002201007FFFFF1F2100000000210100A5
:105A000068FFFF1F0900000000030000BCFFFF1F2C
:105A10000000000001030904F4FEFF1F0000000065
:105A200002030904A0FFFF1F000000000303090494
:105A3000C0FFFF1F00000000000000000000000089
:105A4000000000005E360000823500004036000095
:105A500018360000403600000C36000040360000CA
:105A60001836000082350000823500000C36000038
:105A700018360000C4360000C4360000C4360000EA
:105A80004636000082350000823500002C360000CA
:105A9000163600002C3600000C3600002C360000B4
:105AA0001636000082350000823500000C360000FA
:105AB00016360000C4360000C4360000C4360000AC
:105AC000D0360000BC3900001A3900001A39000035
:105AD00018390000AE390000AE390000A4390000CA
